{
  "contractName": "main",
  "abi": [
    {
      "constant": true,
      "inputs": [
        {
          "internalType": "address",
          "name": "",
          "type": "address"
        }
      ],
      "name": "accounts",
      "outputs": [
        {
          "internalType": "address payable",
          "name": "acntAddress",
          "type": "address"
        },
        {
          "internalType": "uint256",
          "name": "donated",
          "type": "uint256"
        },
        {
          "internalType": "uint256",
          "name": "received",
          "type": "uint256"
        }
      ],
      "payable": false,
      "stateMutability": "view",
      "type": "function"
    },
    {
      "constant": true,
      "inputs": [
        {
          "internalType": "string",
          "name": "",
          "type": "string"
        },
        {
          "internalType": "uint256",
          "name": "",
          "type": "uint256"
        }
      ],
      "name": "authorNews",
      "outputs": [
        {
          "internalType": "uint256",
          "name": "timestamp",
          "type": "uint256"
        },
        {
          "internalType": "string",
          "name": "descreption",
          "type": "string"
        },
        {
          "internalType": "string",
          "name": "title",
          "type": "string"
        },
        {
          "internalType": "string",
          "name": "id",
          "type": "string"
        },
        {
          "internalType": "string",
          "name": "author",
          "type": "string"
        }
      ],
      "payable": false,
      "stateMutability": "view",
      "type": "function"
    },
    {
      "constant": true,
      "inputs": [
        {
          "internalType": "string",
          "name": "",
          "type": "string"
        },
        {
          "internalType": "uint256",
          "name": "",
          "type": "uint256"
        }
      ],
      "name": "categoriesForNews",
      "outputs": [
        {
          "internalType": "string",
          "name": "",
          "type": "string"
        }
      ],
      "payable": false,
      "stateMutability": "view",
      "type": "function"
    },
    {
      "constant": true,
      "inputs": [
        {
          "internalType": "string",
          "name": "",
          "type": "string"
        },
        {
          "internalType": "uint256",
          "name": "",
          "type": "uint256"
        }
      ],
      "name": "newsByCategory",
      "outputs": [
        {
          "internalType": "uint256",
          "name": "timestamp",
          "type": "uint256"
        },
        {
          "internalType": "string",
          "name": "descreption",
          "type": "string"
        },
        {
          "internalType": "string",
          "name": "title",
          "type": "string"
        },
        {
          "internalType": "string",
          "name": "id",
          "type": "string"
        },
        {
          "internalType": "string",
          "name": "author",
          "type": "string"
        }
      ],
      "payable": false,
      "stateMutability": "view",
      "type": "function"
    },
    {
      "constant": true,
      "inputs": [
        {
          "internalType": "string",
          "name": "",
          "type": "string"
        }
      ],
      "name": "newsById",
      "outputs": [
        {
          "internalType": "uint256",
          "name": "timestamp",
          "type": "uint256"
        },
        {
          "internalType": "string",
          "name": "descreption",
          "type": "string"
        },
        {
          "internalType": "string",
          "name": "title",
          "type": "string"
        },
        {
          "internalType": "string",
          "name": "id",
          "type": "string"
        },
        {
          "internalType": "string",
          "name": "author",
          "type": "string"
        }
      ],
      "payable": false,
      "stateMutability": "view",
      "type": "function"
    },
    {
      "constant": true,
      "inputs": [
        {
          "internalType": "string",
          "name": "",
          "type": "string"
        },
        {
          "internalType": "uint256",
          "name": "",
          "type": "uint256"
        }
      ],
      "name": "newsForAcnt",
      "outputs": [
        {
          "internalType": "uint256",
          "name": "timestamp",
          "type": "uint256"
        },
        {
          "internalType": "string",
          "name": "descreption",
          "type": "string"
        },
        {
          "internalType": "string",
          "name": "title",
          "type": "string"
        },
        {
          "internalType": "string",
          "name": "id",
          "type": "string"
        },
        {
          "internalType": "string",
          "name": "author",
          "type": "string"
        }
      ],
      "payable": false,
      "stateMutability": "view",
      "type": "function"
    },
    {
      "constant": true,
      "inputs": [
        {
          "internalType": "string",
          "name": "",
          "type": "string"
        },
        {
          "internalType": "uint256",
          "name": "",
          "type": "uint256"
        }
      ],
      "name": "newsImages",
      "outputs": [
        {
          "internalType": "string",
          "name": "",
          "type": "string"
        }
      ],
      "payable": false,
      "stateMutability": "view",
      "type": "function"
    },
    {
      "constant": true,
      "inputs": [
        {
          "internalType": "string",
          "name": "",
          "type": "string"
        },
        {
          "internalType": "uint256",
          "name": "",
          "type": "uint256"
        }
      ],
      "name": "taggedForNews",
      "outputs": [
        {
          "internalType": "string",
          "name": "",
          "type": "string"
        }
      ],
      "payable": false,
      "stateMutability": "view",
      "type": "function"
    },
    {
      "constant": true,
      "inputs": [
        {
          "internalType": "uint256",
          "name": "",
          "type": "uint256"
        }
      ],
      "name": "topTen",
      "outputs": [
        {
          "internalType": "string",
          "name": "",
          "type": "string"
        }
      ],
      "payable": false,
      "stateMutability": "view",
      "type": "function"
    },
    {
      "constant": true,
      "inputs": [
        {
          "internalType": "string",
          "name": "",
          "type": "string"
        },
        {
          "internalType": "uint256",
          "name": "",
          "type": "uint256"
        }
      ],
      "name": "verifiedNews",
      "outputs": [
        {
          "internalType": "string",
          "name": "",
          "type": "string"
        }
      ],
      "payable": false,
      "stateMutability": "view",
      "type": "function"
    },
    {
      "constant": false,
      "inputs": [
        {
          "internalType": "string",
          "name": "_hashedaddr",
          "type": "string"
        },
        {
          "internalType": "string",
          "name": "_title",
          "type": "string"
        },
        {
          "internalType": "string",
          "name": "_ipfs",
          "type": "string"
        },
        {
          "internalType": "uint256",
          "name": "_time",
          "type": "uint256"
        },
        {
          "internalType": "string",
          "name": "_descreption",
          "type": "string"
        },
        {
          "internalType": "string",
          "name": "_id",
          "type": "string"
        },
        {
          "internalType": "string[]",
          "name": "_categories",
          "type": "string[]"
        },
        {
          "internalType": "string[]",
          "name": "_tagged",
          "type": "string[]"
        }
      ],
      "name": "createNews",
      "outputs": [],
      "payable": false,
      "stateMutability": "nonpayable",
      "type": "function"
    },
    {
      "constant": false,
      "inputs": [
        {
          "internalType": "string",
          "name": "_auth",
          "type": "string"
        },
        {
          "internalType": "string",
          "name": "_nid",
          "type": "string"
        },
        {
          "internalType": "string",
          "name": "_ipfs",
          "type": "string"
        }
      ],
      "name": "addImages",
      "outputs": [],
      "payable": false,
      "stateMutability": "nonpayable",
      "type": "function"
    },
    {
      "constant": false,
      "inputs": [
        {
          "internalType": "string",
          "name": "_newsId",
          "type": "string"
        },
        {
          "internalType": "string",
          "name": "_acntId",
          "type": "string"
        },
        {
          "internalType": "string[]",
          "name": "_tagged",
          "type": "string[]"
        }
      ],
      "name": "verification",
      "outputs": [],
      "payable": false,
      "stateMutability": "nonpayable",
      "type": "function"
    },
    {
      "constant": false,
      "inputs": [
        {
          "internalType": "string",
          "name": "_id",
          "type": "string"
        }
      ],
      "name": "getAuthorNews",
      "outputs": [
        {
          "components": [
            {
              "internalType": "uint256",
              "name": "timestamp",
              "type": "uint256"
            },
            {
              "internalType": "string",
              "name": "descreption",
              "type": "string"
            },
            {
              "internalType": "string",
              "name": "title",
              "type": "string"
            },
            {
              "internalType": "string",
              "name": "id",
              "type": "string"
            },
            {
              "internalType": "string",
              "name": "author",
              "type": "string"
            }
          ],
          "internalType": "struct main.news[]",
          "name": "",
          "type": "tuple[]"
        }
      ],
      "payable": false,
      "stateMutability": "nonpayable",
      "type": "function"
    },
    {
      "constant": false,
      "inputs": [
        {
          "internalType": "string",
          "name": "_category",
          "type": "string"
        }
      ],
      "name": "getCategoryNews",
      "outputs": [
        {
          "components": [
            {
              "internalType": "uint256",
              "name": "timestamp",
              "type": "uint256"
            },
            {
              "internalType": "string",
              "name": "descreption",
              "type": "string"
            },
            {
              "internalType": "string",
              "name": "title",
              "type": "string"
            },
            {
              "internalType": "string",
              "name": "id",
              "type": "string"
            },
            {
              "internalType": "string",
              "name": "author",
              "type": "string"
            }
          ],
          "internalType": "struct main.news[]",
          "name": "",
          "type": "tuple[]"
        }
      ],
      "payable": false,
      "stateMutability": "nonpayable",
      "type": "function"
    },
    {
      "constant": false,
      "inputs": [
        {
          "internalType": "string",
          "name": "_id",
          "type": "string"
        }
      ],
      "name": "getTaggedNews",
      "outputs": [
        {
          "components": [
            {
              "internalType": "uint256",
              "name": "timestamp",
              "type": "uint256"
            },
            {
              "internalType": "string",
              "name": "descreption",
              "type": "string"
            },
            {
              "internalType": "string",
              "name": "title",
              "type": "string"
            },
            {
              "internalType": "string",
              "name": "id",
              "type": "string"
            },
            {
              "internalType": "string",
              "name": "author",
              "type": "string"
            }
          ],
          "internalType": "struct main.news[]",
          "name": "",
          "type": "tuple[]"
        }
      ],
      "payable": false,
      "stateMutability": "nonpayable",
      "type": "function"
    },
    {
      "constant": false,
      "inputs": [
        {
          "internalType": "string",
          "name": "_id",
          "type": "string"
        }
      ],
      "name": "getNewsVerifier",
      "outputs": [
        {
          "internalType": "string[]",
          "name": "",
          "type": "string[]"
        }
      ],
      "payable": false,
      "stateMutability": "nonpayable",
      "type": "function"
    },
    {
      "constant": false,
      "inputs": [
        {
          "internalType": "string",
          "name": "_id",
          "type": "string"
        }
      ],
      "name": "getCategories",
      "outputs": [
        {
          "internalType": "string[]",
          "name": "",
          "type": "string[]"
        }
      ],
      "payable": false,
      "stateMutability": "nonpayable",
      "type": "function"
    },
    {
      "constant": false,
      "inputs": [
        {
          "internalType": "string",
          "name": "_id",
          "type": "string"
        }
      ],
      "name": "getTagged",
      "outputs": [
        {
          "internalType": "string[]",
          "name": "",
          "type": "string[]"
        }
      ],
      "payable": false,
      "stateMutability": "nonpayable",
      "type": "function"
    },
    {
      "constant": false,
      "inputs": [],
      "name": "getTopCount",
      "outputs": [
        {
          "internalType": "uint256",
          "name": "",
          "type": "uint256"
        }
      ],
      "payable": false,
      "stateMutability": "nonpayable",
      "type": "function"
    },
    {
      "constant": false,
      "inputs": [
        {
          "internalType": "string",
          "name": "_sender",
          "type": "string"
        },
        {
          "internalType": "string",
          "name": "_receiver",
          "type": "string"
        }
      ],
      "name": "tipAccount",
      "outputs": [],
      "payable": true,
      "stateMutability": "payable",
      "type": "function"
    }
  ],
  "bytecode": "0x608060405234801561001057600080fd5b50613d9f806100206000396000f3fe60806040526004361061012a5760003560e01c80638a21f0f4116100ab578063c6b32da41161006f578063c6b32da414610473578063c6fcce3b1461049e578063e728a93a146104db578063f234650e14610518578063f7ead36014610559578063fa5d8cb9146105965761012a565b80638a21f0f41461035257806395a7b2001461038f578063b39512ba146103cc578063bb7e39b41461040d578063c5b495bc146104365761012a565b80635e5c06e2116100f25780635e5c06e2146102505780635ebab0ed1461028f578063628889e4146102d057806363c44706146102ec57806388635441146103155761012a565b80630972e2ce1461012f5780631a556873146101585780632928a553146101995780632f057d7e146101d65780635a2ddc1314610213575b600080fd5b34801561013b57600080fd5b50610156600480360361015191908101906133d3565b6105d3565b005b34801561016457600080fd5b5061017f600480360361017a919081019061365b565b61068f565b604051610190959493929190613abc565b60405180910390f35b3480156101a557600080fd5b506101c060048036036101bb919081019061365b565b610955565b6040516101cd9190613a5f565b60405180910390f35b3480156101e257600080fd5b506101fd60048036036101f8919081019061365b565b610a31565b60405161020a9190613a5f565b60405180910390f35b34801561021f57600080fd5b5061023a60048036036102359190810190613326565b610b0d565b6040516102479190613a1b565b60405180910390f35b34801561025c57600080fd5b50610277600480360361027291908101906132bc565b610c14565b604051610286939291906139e4565b60405180910390f35b34801561029b57600080fd5b506102b660048036036102b191908101906132e5565b610c5e565b6040516102c7959493929190613abc565b60405180910390f35b6102ea60048036036102e59190810190613367565b610f0a565b005b3480156102f857600080fd5b50610313600480360361030e919081019061346a565b611212565b005b34801561032157600080fd5b5061033c600480360361033791908101906136af565b611374565b6040516103499190613a5f565b60405180910390f35b34801561035e57600080fd5b506103796004803603610374919081019061365b565b61142d565b6040516103869190613a5f565b60405180910390f35b34801561039b57600080fd5b506103b660048036036103b1919081019061365b565b611509565b6040516103c39190613a5f565b60405180910390f35b3480156103d857600080fd5b506103f360048036036103ee919081019061365b565b6115e5565b604051610404959493929190613abc565b60405180910390f35b34801561041957600080fd5b50610434600480360361042f9190810190613501565b6118ab565b005b34801561044257600080fd5b5061045d60048036036104589190810190613326565b6120dd565b60405161046a9190613a3d565b60405180910390f35b34801561047f57600080fd5b506104886123ec565b6040516104959190613aa1565b60405180910390f35b3480156104aa57600080fd5b506104c560048036036104c09190810190613326565b6123f8565b6040516104d29190613a3d565b60405180910390f35b3480156104e757600080fd5b5061050260048036036104fd9190810190613326565b612707565b60405161050f9190613a3d565b60405180910390f35b34801561052457600080fd5b5061053f600480360361053a919081019061365b565b612a16565b604051610550959493929190613abc565b60405180910390f35b34801561056557600080fd5b50610580600480360361057b9190810190613326565b612cdc565b60405161058d9190613a1b565b60405180910390f35b3480156105a257600080fd5b506105bd60048036036105b89190810190613326565b612de3565b6040516105ca9190613a1b565b60405180910390f35b600080905060008090505b825181101561061f576106048382815181106105f657fe5b602002602001015185612eea565b15610612576001915061061f565b80806001019150506105de565b506001151581151514156106895760088460405161063d91906139cd565b9081526020016040518091039020839080600181540180825580915050906001820390600052602060002001600090919290919091509080519060200190610686929190612f43565b50505b50505050565b60068280516020810182018051848252602083016020850120818352809550505050505081815481106106be57fe5b906000526020600020906005020160009150915050806000015490806001018054600181600116156101000203166002900480601f0160208091040260200160405190810160405280929190818152602001828054600181600116156101000203166002900480156107715780601f1061074657610100808354040283529160200191610771565b820191906000526020600020905b81548152906001019060200180831161075457829003601f168201915b505050505090806002018054600181600116156101000203166002900480601f01602080910402602001604051908101604052809291908181526020018280546001816001161561010002031660029004801561080f5780601f106107e45761010080835404028352916020019161080f565b820191906000526020600020905b8154815290600101906020018083116107f257829003601f168201915b505050505090806003018054600181600116156101000203166002900480601f0160208091040260200160405190810160405280929190818152602001828054600181600116156101000203166002900480156108ad5780601f10610882576101008083540402835291602001916108ad565b820191906000526020600020905b81548152906001019060200180831161089057829003601f168201915b505050505090806004018054600181600116156101000203166002900480601f01602080910402602001604051908101604052809291908181526020018280546001816001161561010002031660029004801561094b5780601f106109205761010080835404028352916020019161094b565b820191906000526020600020905b81548152906001019060200180831161092e57829003601f168201915b5050505050905085565b600a82805160208101820180518482526020830160208501208183528095505050505050818154811061098457fe5b90600052602060002001600091509150508054600181600116156101000203166002900480601f016020809104026020016040519081016040528092919081815260200182805460018160011615610100020316600290048015610a295780601f106109fe57610100808354040283529160200191610a29565b820191906000526020600020905b815481529060010190602001808311610a0c57829003601f168201915b505050505081565b6008828051602081018201805184825260208301602085012081835280955050505050508181548110610a6057fe5b90600052602060002001600091509150508054600181600116156101000203166002900480601f016020809104026020016040519081016040528092919081815260200182805460018160011615610100020316600290048015610b055780601f10610ada57610100808354040283529160200191610b05565b820191906000526020600020905b815481529060010190602001808311610ae857829003601f168201915b505050505081565b6060600882604051610b1f91906139cd565b9081526020016040518091039020805480602002602001604051908101604052809291908181526020016000905b82821015610c09578382906000526020600020018054600181600116156101000203166002900480601f016020809104026020016040519081016040528092919081815260200182805460018160011615610100020316600290048015610bf55780601f10610bca57610100808354040283529160200191610bf5565b820191906000526020600020905b815481529060010190602001808311610bd857829003601f168201915b505050505081526020019060010190610b4d565b505050509050919050565b60016020528060005260406000206000915090508060000160009054906101000a900473ffffffffffffffffffffffffffffffffffffffff16908060010154908060020154905083565b600381805160208101820180518482526020830160208501208183528095505050505050600091509050806000015490806001018054600181600116156101000203166002900480601f016020809104026020016040519081016040528092919081815260200182805460018160011615610100020316600290048015610d265780601f10610cfb57610100808354040283529160200191610d26565b820191906000526020600020905b815481529060010190602001808311610d0957829003601f168201915b505050505090806002018054600181600116156101000203166002900480601f016020809104026020016040519081016040528092919081815260200182805460018160011615610100020316600290048015610dc45780601f10610d9957610100808354040283529160200191610dc4565b820191906000526020600020905b815481529060010190602001808311610da757829003601f168201915b505050505090806003018054600181600116156101000203166002900480601f016020809104026020016040519081016040528092919081815260200182805460018160011615610100020316600290048015610e625780601f10610e3757610100808354040283529160200191610e62565b820191906000526020600020905b815481529060010190602001808311610e4557829003601f168201915b505050505090806004018054600181600116156101000203166002900480601f016020809104026020016040519081016040528092919081815260200182805460018160011615610100020316600290048015610f005780601f10610ed557610100808354040283529160200191610f00565b820191906000526020600020905b815481529060010190602001808311610ee357829003601f168201915b5050505050905085565b600073ffffffffffffffffffffffffffffffffffffffff16600283604051610f3291906139cd565b908152602001604051809103902060009054906101000a900473ffffffffffffffffffffffffffffffffffffffff1673ffffffffffffffffffffffffffffffffffffffff1614156110ab5733600283604051610f8e91906139cd565b908152602001604051809103902060006101000a81548173ffffffffffffffffffffffffffffffffffffffff021916908373ffffffffffffffffffffffffffffffffffffffff16021790555060405180606001604052803373ffffffffffffffffffffffffffffffffffffffff168152602001600081526020016000815250600160003373ffffffffffffffffffffffffffffffffffffffff1673ffffffffffffffffffffffffffffffffffffffff16815260200190815260200160002060008201518160000160006101000a81548173ffffffffffffffffffffffffffffffffffffffff021916908373ffffffffffffffffffffffffffffffffffffffff16021790555060208201518160010155604082015181600201559050505b6002816040516110bb91906139cd565b908152602001604051809103902060009054906101000a900473ffffffffffffffffffffffffffffffffffffffff1673ffffffffffffffffffffffffffffffffffffffff166108fc349081150290604051600060405180830381858888f1935050505015801561112f573d6000803e3d6000fd5b50346001600060028460405161114591906139cd565b908152602001604051809103902060009054906101000a900473ffffffffffffffffffffffffffffffffffffffff1673ffffffffffffffffffffffffffffffffffffffff1673ffffffffffffffffffffffffffffffffffffffff1681526020019081526020016000206002016000828254019250508190555034600160003373ffffffffffffffffffffffffffffffffffffffff1673ffffffffffffffffffffffffffffffffffffffff168152602001908152602001600020600101600082825401925050819055505050565b6112d58360038460405161122691906139cd565b90815260200160405180910390206004018054600181600116156101000203166002900480601f0160208091040260200160405190810160405280929190818152602001828054600181600116156101000203166002900480156112cb5780601f106112a0576101008083540402835291602001916112cb565b820191906000526020600020905b8154815290600101906020018083116112ae57829003601f168201915b5050505050612eea565b611314576040517f08c379a000000000000000000000000000000000000000000000000000000000815260040161130b90613a81565b60405180910390fd5b60058260405161132491906139cd565b908152602001604051809103902081908060018154018082558091505090600182039060005260206000200160009091929091909150908051906020019061136d929190612f43565b5050505050565b6000818154811061138157fe5b906000526020600020016000915090508054600181600116156101000203166002900480601f0160208091040260200160405190810160405280929190818152602001828054600181600116156101000203166002900480156114255780601f106113fa57610100808354040283529160200191611425565b820191906000526020600020905b81548152906001019060200180831161140857829003601f168201915b505050505081565b600982805160208101820180518482526020830160208501208183528095505050505050818154811061145c57fe5b90600052602060002001600091509150508054600181600116156101000203166002900480601f0160208091040260200160405190810160405280929190818152602001828054600181600116156101000203166002900480156115015780601f106114d657610100808354040283529160200191611501565b820191906000526020600020905b8154815290600101906020018083116114e457829003601f168201915b505050505081565b600582805160208101820180518482526020830160208501208183528095505050505050818154811061153857fe5b90600052602060002001600091509150508054600181600116156101000203166002900480601f0160208091040260200160405190810160405280929190818152602001828054600181600116156101000203166002900480156115dd5780601f106115b2576101008083540402835291602001916115dd565b820191906000526020600020905b8154815290600101906020018083116115c057829003601f168201915b505050505081565b600482805160208101820180518482526020830160208501208183528095505050505050818154811061161457fe5b906000526020600020906005020160009150915050806000015490806001018054600181600116156101000203166002900480601f0160208091040260200160405190810160405280929190818152602001828054600181600116156101000203166002900480156116c75780601f1061169c576101008083540402835291602001916116c7565b820191906000526020600020905b8154815290600101906020018083116116aa57829003601f168201915b505050505090806002018054600181600116156101000203166002900480601f0160208091040260200160405190810160405280929190818152602001828054600181600116156101000203166002900480156117655780601f1061173a57610100808354040283529160200191611765565b820191906000526020600020905b81548152906001019060200180831161174857829003601f168201915b505050505090806003018054600181600116156101000203166002900480601f0160208091040260200160405190810160405280929190818152602001828054600181600116156101000203166002900480156118035780601f106117d857610100808354040283529160200191611803565b820191906000526020600020905b8154815290600101906020018083116117e657829003601f168201915b505050505090806004018054600181600116156101000203166002900480601f0160208091040260200160405190810160405280929190818152602001828054600181600116156101000203166002900480156118a15780601f10611876576101008083540402835291602001916118a1565b820191906000526020600020905b81548152906001019060200180831161188457829003601f168201915b5050505050905085565b600073ffffffffffffffffffffffffffffffffffffffff166002896040516118d391906139cd565b908152602001604051809103902060009054906101000a900473ffffffffffffffffffffffffffffffffffffffff1673ffffffffffffffffffffffffffffffffffffffff161415611a4c573360028960405161192f91906139cd565b908152602001604051809103902060006101000a81548173ffffffffffffffffffffffffffffffffffffffff021916908373ffffffffffffffffffffffffffffffffffffffff16021790555060405180606001604052803373ffffffffffffffffffffffffffffffffffffffff168152602001600081526020016000815250600160003373ffffffffffffffffffffffffffffffffffffffff1673ffffffffffffffffffffffffffffffffffffffff16815260200190815260200160002060008201518160000160006101000a81548173ffffffffffffffffffffffffffffffffffffffff021916908373ffffffffffffffffffffffffffffffffffffffff16021790555060208201518160010155604082015181600201559050505b6040518060a0016040528086815260200185815260200188815260200184815260200189815250600384604051611a8391906139cd565b9081526020016040518091039020600082015181600001556020820151816001019080519060200190611ab7929190612fc3565b506040820151816002019080519060200190611ad4929190612fc3565b506060820151816003019080519060200190611af1929190612fc3565b506080820151816004019080519060200190611b0e929190612fc3565b50905050600488604051611b2291906139cd565b9081526020016040518091039020600384604051611b4091906139cd565b9081526020016040518091039020908060018154018082558091505090600182039060005260206000209060050201600090919290919091506000820154816000015560018201816001019080546001816001161561010002031660029004611baa929190613043565b5060028201816002019080546001816001161561010002031660029004611bd2929190613043565b5060038201816003019080546001816001161561010002031660029004611bfa929190613043565b5060048201816004019080546001816001161561010002031660029004611c22929190613043565b5050505060008090505b8251811015611dd757600984604051611c4591906139cd565b9081526020016040518091039020838281518110611c5f57fe5b60200260200101519080600181540180825580915050906001820390600052602060002001600090919290919091509080519060200190611ca1929190612f43565b50506006838281518110611cb157fe5b6020026020010151604051611cc691906139b6565b9081526020016040518091039020600385604051611ce491906139cd565b9081526020016040518091039020908060018154018082558091505090600182039060005260206000209060050201600090919290919091506000820154816000015560018201816001019080546001816001161561010002031660029004611d4e929190613043565b5060028201816002019080546001816001161561010002031660029004611d76929190613043565b5060038201816003019080546001816001161561010002031660029004611d9e929190613043565b5060048201816004019080546001816001161561010002031660029004611dc6929190613043565b505050508080600101915050611c2c565b5060008090505b8151811015611f8957600a84604051611df791906139cd565b9081526020016040518091039020828281518110611e1157fe5b60200260200101519080600181540180825580915050906001820390600052602060002001600090919290919091509080519060200190611e53929190612f43565b50506007828281518110611e6357fe5b6020026020010151604051611e7891906139b6565b9081526020016040518091039020600385604051611e9691906139cd565b9081526020016040518091039020908060018154018082558091505090600182039060005260206000209060050201600090919290919091506000820154816000015560018201816001019080546001816001161561010002031660029004611f00929190613043565b5060028201816002019080546001816001161561010002031660029004611f28929190613043565b5060038201816003019080546001816001161561010002031660029004611f50929190613043565b5060048201816004019080546001816001161561010002031660029004611f78929190613043565b505050508080600101915050611dde565b50600a6000805490501415612038576000600990505b600181106120065760006001820381548110611fb757fe5b9060005260206000200160008281548110611fce57fe5b906000526020600020019080546001816001161561010002031660029004611ff79291906130ca565b50808060019003915050611f9f565b50826000808154811061201557fe5b906000526020600020019080519060200190612032929190612f43565b50612078565b6000839080600181540180825580915050906001820390600052602060002001600090919290919091509080519060200190612075929190612f43565b50505b60058360405161208891906139cd565b90815260200160405180910390208690806001815401808255809150509060018203906000526020600020016000909192909190915090805190602001906120d1929190612f43565b50505050505050505050565b60606006826040516120ef91906139cd565b9081526020016040518091039020805480602002602001604051908101604052809291908181526020016000905b828210156123e157838290600052602060002090600502016040518060a001604052908160008201548152602001600182018054600181600116156101000203166002900480601f0160208091040260200160405190810160405280929190818152602001828054600181600116156101000203166002900480156121e35780601f106121b8576101008083540402835291602001916121e3565b820191906000526020600020905b8154815290600101906020018083116121c657829003601f168201915b50505050508152602001600282018054600181600116156101000203166002900480601f0160208091040260200160405190810160405280929190818152602001828054600181600116156101000203166002900480156122855780601f1061225a57610100808354040283529160200191612285565b820191906000526020600020905b81548152906001019060200180831161226857829003601f168201915b50505050508152602001600382018054600181600116156101000203166002900480601f0160208091040260200160405190810160405280929190818152602001828054600181600116156101000203166002900480156123275780601f106122fc57610100808354040283529160200191612327565b820191906000526020600020905b81548152906001019060200180831161230a57829003601f168201915b50505050508152602001600482018054600181600116156101000203166002900480601f0160208091040260200160405190810160405280929190818152602001828054600181600116156101000203166002900480156123c95780601f1061239e576101008083540402835291602001916123c9565b820191906000526020600020905b8154815290600101906020018083116123ac57829003601f168201915b5050505050815250508152602001906001019061211d565b505050509050919050565b60008080549050905090565b606060048260405161240a91906139cd565b9081526020016040518091039020805480602002602001604051908101604052809291908181526020016000905b828210156126fc57838290600052602060002090600502016040518060a001604052908160008201548152602001600182018054600181600116156101000203166002900480601f0160208091040260200160405190810160405280929190818152602001828054600181600116156101000203166002900480156124fe5780601f106124d3576101008083540402835291602001916124fe565b820191906000526020600020905b8154815290600101906020018083116124e157829003601f168201915b50505050508152602001600282018054600181600116156101000203166002900480601f0160208091040260200160405190810160405280929190818152602001828054600181600116156101000203166002900480156125a05780601f10612575576101008083540402835291602001916125a0565b820191906000526020600020905b81548152906001019060200180831161258357829003601f168201915b50505050508152602001600382018054600181600116156101000203166002900480601f0160208091040260200160405190810160405280929190818152602001828054600181600116156101000203166002900480156126425780601f1061261757610100808354040283529160200191612642565b820191906000526020600020905b81548152906001019060200180831161262557829003601f168201915b50505050508152602001600482018054600181600116156101000203166002900480601f0160208091040260200160405190810160405280929190818152602001828054600181600116156101000203166002900480156126e45780601f106126b9576101008083540402835291602001916126e4565b820191906000526020600020905b8154815290600101906020018083116126c757829003601f168201915b50505050508152505081526020019060010190612438565b505050509050919050565b606060078260405161271991906139cd565b9081526020016040518091039020805480602002602001604051908101604052809291908181526020016000905b82821015612a0b57838290600052602060002090600502016040518060a001604052908160008201548152602001600182018054600181600116156101000203166002900480601f01602080910402602001604051908101604052809291908181526020018280546001816001161561010002031660029004801561280d5780601f106127e25761010080835404028352916020019161280d565b820191906000526020600020905b8154815290600101906020018083116127f057829003601f168201915b50505050508152602001600282018054600181600116156101000203166002900480601f0160208091040260200160405190810160405280929190818152602001828054600181600116156101000203166002900480156128af5780601f10612884576101008083540402835291602001916128af565b820191906000526020600020905b81548152906001019060200180831161289257829003601f168201915b50505050508152602001600382018054600181600116156101000203166002900480601f0160208091040260200160405190810160405280929190818152602001828054600181600116156101000203166002900480156129515780601f1061292657610100808354040283529160200191612951565b820191906000526020600020905b81548152906001019060200180831161293457829003601f168201915b50505050508152602001600482018054600181600116156101000203166002900480601f0160208091040260200160405190810160405280929190818152602001828054600181600116156101000203166002900480156129f35780601f106129c8576101008083540402835291602001916129f3565b820191906000526020600020905b8154815290600101906020018083116129d657829003601f168201915b50505050508152505081526020019060010190612747565b505050509050919050565b6007828051602081018201805184825260208301602085012081835280955050505050508181548110612a4557fe5b906000526020600020906005020160009150915050806000015490806001018054600181600116156101000203166002900480601f016020809104026020016040519081016040528092919081815260200182805460018160011615610100020316600290048015612af85780601f10612acd57610100808354040283529160200191612af8565b820191906000526020600020905b815481529060010190602001808311612adb57829003601f168201915b505050505090806002018054600181600116156101000203166002900480601f016020809104026020016040519081016040528092919081815260200182805460018160011615610100020316600290048015612b965780601f10612b6b57610100808354040283529160200191612b96565b820191906000526020600020905b815481529060010190602001808311612b7957829003601f168201915b505050505090806003018054600181600116156101000203166002900480601f016020809104026020016040519081016040528092919081815260200182805460018160011615610100020316600290048015612c345780601f10612c0957610100808354040283529160200191612c34565b820191906000526020600020905b815481529060010190602001808311612c1757829003601f168201915b505050505090806004018054600181600116156101000203166002900480601f016020809104026020016040519081016040528092919081815260200182805460018160011615610100020316600290048015612cd25780601f10612ca757610100808354040283529160200191612cd2565b820191906000526020600020905b815481529060010190602001808311612cb557829003601f168201915b5050505050905085565b6060600a82604051612cee91906139cd565b9081526020016040518091039020805480602002602001604051908101604052809291908181526020016000905b82821015612dd8578382906000526020600020018054600181600116156101000203166002900480601f016020809104026020016040519081016040528092919081815260200182805460018160011615610100020316600290048015612dc45780601f10612d9957610100808354040283529160200191612dc4565b820191906000526020600020905b815481529060010190602001808311612da757829003601f168201915b505050505081526020019060010190612d1c565b505050509050919050565b6060600982604051612df591906139cd565b9081526020016040518091039020805480602002602001604051908101604052809291908181526020016000905b82821015612edf578382906000526020600020018054600181600116156101000203166002900480601f016020809104026020016040519081016040528092919081815260200182805460018160011615610100020316600290048015612ecb5780601f10612ea057610100808354040283529160200191612ecb565b820191906000526020600020905b815481529060010190602001808311612eae57829003601f168201915b505050505081526020019060010190612e23565b505050509050919050565b600081604051602001612efd91906139cd565b6040516020818303038152906040528051906020012083604051602001612f2491906139cd565b6040516020818303038152906040528051906020012014905092915050565b828054600181600116156101000203166002900490600052602060002090601f016020900481019282601f10612f8457805160ff1916838001178555612fb2565b82800160010185558215612fb2579182015b82811115612fb1578251825591602001919060010190612f96565b5b509050612fbf9190613151565b5090565b828054600181600116156101000203166002900490600052602060002090601f016020900481019282601f1061300457805160ff1916838001178555613032565b82800160010185558215613032579182015b82811115613031578251825591602001919060010190613016565b5b50905061303f9190613151565b5090565b828054600181600116156101000203166002900490600052602060002090601f016020900481019282601f1061307c57805485556130b9565b828001600101855582156130b957600052602060002091601f016020900482015b828111156130b857825482559160010191906001019061309d565b5b5090506130c69190613151565b5090565b828054600181600116156101000203166002900490600052602060002090601f016020900481019282601f106131035780548555613140565b8280016001018555821561314057600052602060002091601f016020900482015b8281111561313f578254825591600101919060010190613124565b5b50905061314d9190613151565b5090565b61317391905b8082111561316f576000816000905550600101613157565b5090565b90565b60008135905061318581613d2e565b92915050565b600082601f83011261319c57600080fd5b81356131af6131aa82613b58565b613b2b565b9150818183526020840193506020810190508360005b838110156131f557813586016131db88826131ff565b8452602084019350602083019250506001810190506131c5565b5050505092915050565b600082601f83011261321057600080fd5b813561322361321e82613b80565b613b2b565b9150808252602083016020830185838301111561323f57600080fd5b61324a838284613cdb565b50505092915050565b600082601f83011261326457600080fd5b813561327761327282613bac565b613b2b565b9150808252602083016020830185838301111561329357600080fd5b61329e838284613cdb565b50505092915050565b6000813590506132b681613d45565b92915050565b6000602082840312156132ce57600080fd5b60006132dc84828501613176565b91505092915050565b6000602082840312156132f757600080fd5b600082013567ffffffffffffffff81111561331157600080fd5b61331d848285016131ff565b91505092915050565b60006020828403121561333857600080fd5b600082013567ffffffffffffffff81111561335257600080fd5b61335e84828501613253565b91505092915050565b6000806040838503121561337a57600080fd5b600083013567ffffffffffffffff81111561339457600080fd5b6133a085828601613253565b925050602083013567ffffffffffffffff8111156133bd57600080fd5b6133c985828601613253565b9150509250929050565b6000806000606084860312156133e857600080fd5b600084013567ffffffffffffffff81111561340257600080fd5b61340e86828701613253565b935050602084013567ffffffffffffffff81111561342b57600080fd5b61343786828701613253565b925050604084013567ffffffffffffffff81111561345457600080fd5b6134608682870161318b565b9150509250925092565b60008060006060848603121561347f57600080fd5b600084013567ffffffffffffffff81111561349957600080fd5b6134a586828701613253565b935050602084013567ffffffffffffffff8111156134c257600080fd5b6134ce86828701613253565b925050604084013567ffffffffffffffff8111156134eb57600080fd5b6134f786828701613253565b9150509250925092565b600080600080600080600080610100898b03121561351e57600080fd5b600089013567ffffffffffffffff81111561353857600080fd5b6135448b828c01613253565b985050602089013567ffffffffffffffff81111561356157600080fd5b61356d8b828c01613253565b975050604089013567ffffffffffffffff81111561358a57600080fd5b6135968b828c01613253565b96505060606135a78b828c016132a7565b955050608089013567ffffffffffffffff8111156135c457600080fd5b6135d08b828c01613253565b94505060a089013567ffffffffffffffff8111156135ed57600080fd5b6135f98b828c01613253565b93505060c089013567ffffffffffffffff81111561361657600080fd5b6136228b828c0161318b565b92505060e089013567ffffffffffffffff81111561363f57600080fd5b61364b8b828c0161318b565b9150509295985092959890939650565b6000806040838503121561366e57600080fd5b600083013567ffffffffffffffff81111561368857600080fd5b613694858286016131ff565b92505060206136a5858286016132a7565b9150509250929050565b6000602082840312156136c157600080fd5b60006136cf848285016132a7565b91505092915050565b60006136e4838361382a565b905092915050565b60006136f8838361390d565b905092915050565b61370981613c9f565b82525050565b600061371a82613bf8565b6137248185613c3e565b93508360208202850161373685613bd8565b8060005b85811015613772578484038952815161375385826136d8565b945061375e83613c24565b925060208a0199505060018101905061373a565b50829750879550505050505092915050565b600061378f82613c03565b6137998185613c4f565b9350836020820285016137ab85613be8565b8060005b858110156137e757848403895281516137c885826136ec565b94506137d383613c31565b925060208a019950506001810190506137af565b50829750879550505050505092915050565b600061380482613c19565b61380e8185613c82565b935061381e818560208601613cea565b80840191505092915050565b600061383582613c0e565b61383f8185613c60565b935061384f818560208601613cea565b61385881613d1d565b840191505092915050565b600061386e82613c0e565b6138788185613c71565b9350613888818560208601613cea565b61389181613d1d565b840191505092915050565b60006138a782613c0e565b6138b18185613c82565b93506138c1818560208601613cea565b80840191505092915050565b60006138da601383613c71565b91507f596f7520617265206e6f7420617574686f7221000000000000000000000000006000830152602082019050919050565b600060a0830160008301516139256000860182613998565b506020830151848203602086015261393d828261382a565b91505060408301518482036040860152613957828261382a565b91505060608301518482036060860152613971828261382a565b9150506080830151848203608086015261398b828261382a565b9150508091505092915050565b6139a181613cd1565b82525050565b6139b081613cd1565b82525050565b60006139c2828461389c565b915081905092915050565b60006139d982846137f9565b915081905092915050565b60006060820190506139f96000830186613700565b613a0660208301856139a7565b613a1360408301846139a7565b949350505050565b60006020820190508181036000830152613a35818461370f565b905092915050565b60006020820190508181036000830152613a578184613784565b905092915050565b60006020820190508181036000830152613a798184613863565b905092915050565b60006020820190508181036000830152613a9a816138cd565b9050919050565b6000602082019050613ab660008301846139a7565b92915050565b600060a082019050613ad160008301886139a7565b8181036020830152613ae38187613863565b90508181036040830152613af78186613863565b90508181036060830152613b0b8185613863565b90508181036080830152613b1f8184613863565b90509695505050505050565b6000604051905081810181811067ffffffffffffffff82111715613b4e57600080fd5b8060405250919050565b600067ffffffffffffffff821115613b6f57600080fd5b602082029050602081019050919050565b600067ffffffffffffffff821115613b9757600080fd5b601f19601f8301169050602081019050919050565b600067ffffffffffffffff821115613bc357600080fd5b601f19601f8301169050602081019050919050565b6000819050602082019050919050565b6000819050602082019050919050565b600081519050919050565b600081519050919050565b600081519050919050565b600081519050919050565b6000602082019050919050565b6000602082019050919050565b600082825260208201905092915050565b600082825260208201905092915050565b600082825260208201905092915050565b600082825260208201905092915050565b600081905092915050565b6000613c9882613cb1565b9050919050565b6000613caa82613cb1565b9050919050565b600073ffffffffffffffffffffffffffffffffffffffff82169050919050565b6000819050919050565b82818337600083830152505050565b60005b83811015613d08578082015181840152602081019050613ced565b83811115613d17576000848401525b50505050565b6000601f19601f8301169050919050565b613d3781613c8d565b8114613d4257600080fd5b50565b613d4e81613cd1565b8114613d5957600080fd5b5056fea365627a7a72315820272c9677f8834d76331277b0504fcf5894b38abe8f1b27943e7fb755115f2ae86c6578706572696d656e74616cf564736f6c63430005100040",
  "source": "pragma solidity ^0.5.0;\r\npragma experimental ABIEncoderV2;\r\ncontract main {\r\n\r\n  string[] public topTen;\r\n\r\n  struct news{\r\n    uint timestamp;\r\n    string descreption;\r\n    string title;\r\n    string id;\r\n    string author;\r\n  }\r\n\r\n struct account{\r\n   address payable acntAddress;\r\n   uint donated;\r\n   uint received;\r\n }\r\n\r\n  mapping (address => account) public accounts;\r\n  mapping (string=>address payable) addresses;\r\n  mapping (string => news) public newsById;\r\n  mapping (string => news[]) public authorNews;\r\n  mapping (string => string[]) public newsImages;\r\n  mapping (string => news[]) public newsByCategory;\r\n  mapping (string => news[]) public newsForAcnt;\r\n  mapping (string => string[]) public verifiedNews;\r\n  mapping (string => string[]) public categoriesForNews;\r\n  mapping (string => string[]) public taggedForNews;\r\n\r\n  function string_check(string memory str1, string memory str2) pure internal returns (bool) {\r\n        return (keccak256(abi.encodePacked(str1)) == keccak256(abi.encodePacked(str2)));\r\n    }\r\n\r\n    function createNews(string memory _hashedaddr,string memory _title,string memory _ipfs,uint _time,string memory _descreption,string memory _id,string[] memory _categories,string[] memory _tagged) public{\r\n        if(addresses[_hashedaddr]==address(0)){\r\n        addresses[_hashedaddr]=msg.sender;\r\n        accounts[msg.sender]=account(msg.sender,0,0);\r\n      }\r\n        newsById[_id]=news(_time,_descreption,_title,_id,_hashedaddr);\r\n        authorNews[_hashedaddr].push(newsById[_id]);\r\n        for(uint itr=0;itr<_categories.length;itr++){\r\n          categoriesForNews[_id].push(_categories[itr]);\r\n          newsByCategory[_categories[itr]].push(newsById[_id]);\r\n        }\r\n        for(uint itr=0;itr<_tagged.length;itr++){\r\n          taggedForNews[_id].push(_tagged[itr]);\r\n          newsForAcnt[_tagged[itr]].push(newsById[_id]);\r\n        }\r\n        if(topTen.length==10){\r\n       for(uint itr=9;itr>=1;itr--){\r\n         topTen[itr]=topTen[itr-1];\r\n       }\r\n       topTen[0]=_id;\r\n     }\r\n     else\r\n     topTen.push(_id);\r\n     newsImages[_id].push(_ipfs);\r\n    }\r\n\r\n  function addImages(string memory _auth,string memory _nid,string memory _ipfs) public{\r\n    require(string_check(_auth,newsById[_nid].author),'You are not author!');\r\n    newsImages[_nid].push(_ipfs);\r\n  }\r\n\r\n  function verification(string memory _newsId,string memory _acntId,string[] memory _tagged) public{\r\n    bool flag=false;\r\n    for(uint itr=0;itr<_tagged.length;itr++){\r\n      if(string_check(_tagged[itr],_acntId)){\r\n        flag=true;\r\n        break;\r\n      }\r\n    }\r\n    if(flag==true){\r\n      verifiedNews[_newsId].push(_acntId);\r\n    }\r\n  }\r\n\r\n  function getAuthorNews(string memory _id) public returns(news[] memory){\r\n    return authorNews[_id];\r\n  }\r\n\r\n  function getCategoryNews(string memory _category) public returns(news[] memory){\r\n    return newsByCategory[_category];\r\n  }\r\n\r\n  function getTaggedNews(string memory _id) public returns(news[] memory){\r\n    return newsForAcnt[_id];\r\n  }\r\n\r\n  function getNewsVerifier(string memory _id) public returns(string[] memory){\r\n    return verifiedNews[_id];\r\n  }\r\n\r\n  function getCategories(string memory _id) public returns(string[] memory){\r\n    return categoriesForNews[_id];\r\n  }\r\n\r\n  function getTagged(string memory _id) public returns(string[] memory){\r\n    return taggedForNews[_id];\r\n  }\r\n\r\n  function getTopCount() public returns(uint){\r\n    return topTen.length;\r\n  }\r\n\r\n  function tipAccount(string memory _sender,string memory _receiver) public payable{\r\n    if(addresses[_sender]==address(0)){\r\n    addresses[_sender]=msg.sender;\r\n    accounts[msg.sender]=account(msg.sender,0,0);\r\n  }\r\n    (addresses[_receiver]).transfer(msg.value);\r\n    accounts[addresses[_receiver]].received+=msg.value;\r\n    accounts[msg.sender].donated+=msg.value;\r\n  }\r\n\r\n}\r\n",
  "sourcePath": "C:/Users/srira/Desktop/fourth-pillar/src/contracts/main.sol",
  "compiler": {
    "name": "solc",
    "version": "0.5.16+commit.9c3226ce.Emscripten.clang"
  },
  "schemaVersion": "3.2.5",
  "updatedAt": "2020-10-11T13:44:13.539Z",
  "networkType": "ethereum",
  "devdoc": {
    "methods": {}
  },
  "userdoc": {
    "methods": {}
  }
}