{
  "contractName": "main",
  "abi": [
    {
      "constant": true,
      "inputs": [
        {
          "internalType": "string",
          "name": "",
          "type": "string"
        }
      ],
      "name": "accounts",
      "outputs": [
        {
          "internalType": "bool",
          "name": "isprivate",
          "type": "bool"
        },
        {
          "internalType": "address payable",
          "name": "acntAddress",
          "type": "address"
        },
        {
          "internalType": "string",
          "name": "id",
          "type": "string"
        },
        {
          "internalType": "string",
          "name": "name",
          "type": "string"
        },
        {
          "internalType": "string",
          "name": "profileHash",
          "type": "string"
        },
        {
          "internalType": "uint256",
          "name": "aadhaar",
          "type": "uint256"
        },
        {
          "internalType": "uint256",
          "name": "donated",
          "type": "uint256"
        },
        {
          "internalType": "uint256",
          "name": "received",
          "type": "uint256"
        }
      ],
      "payable": false,
      "stateMutability": "view",
      "type": "function"
    },
    {
      "constant": true,
      "inputs": [
        {
          "internalType": "string",
          "name": "",
          "type": "string"
        },
        {
          "internalType": "uint256",
          "name": "",
          "type": "uint256"
        }
      ],
      "name": "authorNews",
      "outputs": [
        {
          "internalType": "uint256",
          "name": "timestamp",
          "type": "uint256"
        },
        {
          "internalType": "string",
          "name": "descreption",
          "type": "string"
        },
        {
          "internalType": "string",
          "name": "id",
          "type": "string"
        }
      ],
      "payable": false,
      "stateMutability": "view",
      "type": "function"
    },
    {
      "constant": true,
      "inputs": [
        {
          "internalType": "string",
          "name": "",
          "type": "string"
        },
        {
          "internalType": "uint256",
          "name": "",
          "type": "uint256"
        }
      ],
      "name": "categoriesForNews",
      "outputs": [
        {
          "internalType": "string",
          "name": "",
          "type": "string"
        }
      ],
      "payable": false,
      "stateMutability": "view",
      "type": "function"
    },
    {
      "constant": true,
      "inputs": [
        {
          "internalType": "uint256",
          "name": "",
          "type": "uint256"
        }
      ],
      "name": "identity",
      "outputs": [
        {
          "internalType": "string",
          "name": "",
          "type": "string"
        }
      ],
      "payable": false,
      "stateMutability": "view",
      "type": "function"
    },
    {
      "constant": true,
      "inputs": [
        {
          "internalType": "string",
          "name": "",
          "type": "string"
        },
        {
          "internalType": "uint256",
          "name": "",
          "type": "uint256"
        }
      ],
      "name": "newsByCategory",
      "outputs": [
        {
          "internalType": "uint256",
          "name": "timestamp",
          "type": "uint256"
        },
        {
          "internalType": "string",
          "name": "descreption",
          "type": "string"
        },
        {
          "internalType": "string",
          "name": "id",
          "type": "string"
        }
      ],
      "payable": false,
      "stateMutability": "view",
      "type": "function"
    },
    {
      "constant": true,
      "inputs": [
        {
          "internalType": "string",
          "name": "",
          "type": "string"
        }
      ],
      "name": "newsById",
      "outputs": [
        {
          "internalType": "uint256",
          "name": "timestamp",
          "type": "uint256"
        },
        {
          "internalType": "string",
          "name": "descreption",
          "type": "string"
        },
        {
          "internalType": "string",
          "name": "id",
          "type": "string"
        }
      ],
      "payable": false,
      "stateMutability": "view",
      "type": "function"
    },
    {
      "constant": true,
      "inputs": [
        {
          "internalType": "string",
          "name": "",
          "type": "string"
        },
        {
          "internalType": "uint256",
          "name": "",
          "type": "uint256"
        }
      ],
      "name": "newsForAcnt",
      "outputs": [
        {
          "internalType": "uint256",
          "name": "timestamp",
          "type": "uint256"
        },
        {
          "internalType": "string",
          "name": "descreption",
          "type": "string"
        },
        {
          "internalType": "string",
          "name": "id",
          "type": "string"
        }
      ],
      "payable": false,
      "stateMutability": "view",
      "type": "function"
    },
    {
      "constant": true,
      "inputs": [
        {
          "internalType": "string",
          "name": "",
          "type": "string"
        }
      ],
      "name": "newsImages",
      "outputs": [
        {
          "internalType": "string",
          "name": "",
          "type": "string"
        }
      ],
      "payable": false,
      "stateMutability": "view",
      "type": "function"
    },
    {
      "constant": true,
      "inputs": [
        {
          "internalType": "string",
          "name": "",
          "type": "string"
        },
        {
          "internalType": "uint256",
          "name": "",
          "type": "uint256"
        }
      ],
      "name": "taggedForNews",
      "outputs": [
        {
          "internalType": "string",
          "name": "",
          "type": "string"
        }
      ],
      "payable": false,
      "stateMutability": "view",
      "type": "function"
    },
    {
      "constant": true,
      "inputs": [
        {
          "internalType": "uint256",
          "name": "",
          "type": "uint256"
        }
      ],
      "name": "topTen",
      "outputs": [
        {
          "internalType": "string",
          "name": "",
          "type": "string"
        }
      ],
      "payable": false,
      "stateMutability": "view",
      "type": "function"
    },
    {
      "constant": true,
      "inputs": [
        {
          "internalType": "string",
          "name": "",
          "type": "string"
        },
        {
          "internalType": "uint256",
          "name": "",
          "type": "uint256"
        }
      ],
      "name": "verifiedNews",
      "outputs": [
        {
          "internalType": "string",
          "name": "",
          "type": "string"
        }
      ],
      "payable": false,
      "stateMutability": "view",
      "type": "function"
    },
    {
      "constant": false,
      "inputs": [
        {
          "internalType": "string",
          "name": "_id",
          "type": "string"
        },
        {
          "internalType": "string",
          "name": "_name",
          "type": "string"
        },
        {
          "internalType": "uint256",
          "name": "_aadhaar",
          "type": "uint256"
        },
        {
          "internalType": "string",
          "name": "_profile",
          "type": "string"
        },
        {
          "internalType": "bool",
          "name": "_flag",
          "type": "bool"
        }
      ],
      "name": "createAccount",
      "outputs": [],
      "payable": false,
      "stateMutability": "nonpayable",
      "type": "function"
    },
    {
      "constant": false,
      "inputs": [
        {
          "internalType": "string",
          "name": "_authid",
          "type": "string"
        },
        {
          "internalType": "uint256",
          "name": "_time",
          "type": "uint256"
        },
        {
          "internalType": "string",
          "name": "_descreption",
          "type": "string"
        },
        {
          "internalType": "string",
          "name": "_id",
          "type": "string"
        },
        {
          "internalType": "string[]",
          "name": "_categories",
          "type": "string[]"
        },
        {
          "internalType": "string[]",
          "name": "_tagged",
          "type": "string[]"
        }
      ],
      "name": "createNews",
      "outputs": [],
      "payable": false,
      "stateMutability": "nonpayable",
      "type": "function"
    },
    {
      "constant": false,
      "inputs": [
        {
          "internalType": "string",
          "name": "_aid",
          "type": "string"
        },
        {
          "internalType": "string",
          "name": "_nid",
          "type": "string"
        },
        {
          "internalType": "string",
          "name": "_ipfs",
          "type": "string"
        }
      ],
      "name": "addImages",
      "outputs": [],
      "payable": false,
      "stateMutability": "nonpayable",
      "type": "function"
    },
    {
      "constant": false,
      "inputs": [
        {
          "internalType": "string",
          "name": "_newsId",
          "type": "string"
        },
        {
          "internalType": "string",
          "name": "_acntId",
          "type": "string"
        },
        {
          "internalType": "string[]",
          "name": "_tagged",
          "type": "string[]"
        }
      ],
      "name": "verification",
      "outputs": [],
      "payable": false,
      "stateMutability": "nonpayable",
      "type": "function"
    },
    {
      "constant": false,
      "inputs": [
        {
          "internalType": "string",
          "name": "_id",
          "type": "string"
        }
      ],
      "name": "getAuthorNews",
      "outputs": [
        {
          "components": [
            {
              "internalType": "uint256",
              "name": "timestamp",
              "type": "uint256"
            },
            {
              "internalType": "string",
              "name": "descreption",
              "type": "string"
            },
            {
              "internalType": "string",
              "name": "id",
              "type": "string"
            }
          ],
          "internalType": "struct main.news[]",
          "name": "",
          "type": "tuple[]"
        }
      ],
      "payable": false,
      "stateMutability": "nonpayable",
      "type": "function"
    },
    {
      "constant": false,
      "inputs": [
        {
          "internalType": "string",
          "name": "_category",
          "type": "string"
        }
      ],
      "name": "getCategoryNews",
      "outputs": [
        {
          "components": [
            {
              "internalType": "uint256",
              "name": "timestamp",
              "type": "uint256"
            },
            {
              "internalType": "string",
              "name": "descreption",
              "type": "string"
            },
            {
              "internalType": "string",
              "name": "id",
              "type": "string"
            }
          ],
          "internalType": "struct main.news[]",
          "name": "",
          "type": "tuple[]"
        }
      ],
      "payable": false,
      "stateMutability": "nonpayable",
      "type": "function"
    },
    {
      "constant": false,
      "inputs": [
        {
          "internalType": "string",
          "name": "_id",
          "type": "string"
        }
      ],
      "name": "getTaggedNews",
      "outputs": [
        {
          "components": [
            {
              "internalType": "uint256",
              "name": "timestamp",
              "type": "uint256"
            },
            {
              "internalType": "string",
              "name": "descreption",
              "type": "string"
            },
            {
              "internalType": "string",
              "name": "id",
              "type": "string"
            }
          ],
          "internalType": "struct main.news[]",
          "name": "",
          "type": "tuple[]"
        }
      ],
      "payable": false,
      "stateMutability": "nonpayable",
      "type": "function"
    },
    {
      "constant": false,
      "inputs": [
        {
          "internalType": "string",
          "name": "_id",
          "type": "string"
        }
      ],
      "name": "getNewsVerifier",
      "outputs": [
        {
          "internalType": "string[]",
          "name": "",
          "type": "string[]"
        }
      ],
      "payable": false,
      "stateMutability": "nonpayable",
      "type": "function"
    },
    {
      "constant": false,
      "inputs": [
        {
          "internalType": "string",
          "name": "_id",
          "type": "string"
        }
      ],
      "name": "getCategories",
      "outputs": [
        {
          "internalType": "string[]",
          "name": "",
          "type": "string[]"
        }
      ],
      "payable": false,
      "stateMutability": "nonpayable",
      "type": "function"
    },
    {
      "constant": false,
      "inputs": [
        {
          "internalType": "string",
          "name": "_id",
          "type": "string"
        }
      ],
      "name": "getTagged",
      "outputs": [
        {
          "internalType": "string[]",
          "name": "",
          "type": "string[]"
        }
      ],
      "payable": false,
      "stateMutability": "nonpayable",
      "type": "function"
    },
    {
      "constant": false,
      "inputs": [],
      "name": "getTopCount",
      "outputs": [
        {
          "internalType": "uint256",
          "name": "",
          "type": "uint256"
        }
      ],
      "payable": false,
      "stateMutability": "nonpayable",
      "type": "function"
    },
    {
      "constant": false,
      "inputs": [
        {
          "internalType": "string",
          "name": "_sender",
          "type": "string"
        },
        {
          "internalType": "string",
          "name": "_receiver",
          "type": "string"
        }
      ],
      "name": "tipAccount",
      "outputs": [],
      "payable": true,
      "stateMutability": "payable",
      "type": "function"
    }
  ],
  "bytecode": "0x608060405234801561001057600080fd5b50613821806100206000396000f3fe6080604052600436106101405760003560e01c80638a21f0f4116100b6578063c6fcce3b1161006f578063c6fcce3b146104f0578063e728a93a1461052d578063f234650e1461056a578063f7ead360146105a9578063f90365ad146105e6578063fa5d8cb91461060f57610140565b80638a21f0f4146103925780638fdf832d146103cf578063ac37eebb1461040c578063b39512ba14610449578063c5b495bc14610488578063c6b32da4146104c557610140565b80634b2ebc90116101085780634b2ebc901461026b5780635a2ddc13146102945780635ebab0ed146102d1578063628889e41461031057806363c447061461032c578063886354411461035557610140565b80630972e2ce146101455780631a5568731461016e5780632928a553146101ad5780632f057d7e146101ea5780633039041414610227575b600080fd5b34801561015157600080fd5b5061016c60048036036101679190810190612cc8565b61064c565b005b34801561017a57600080fd5b5061019560048036036101909190810190612fb6565b610708565b6040516101a49392919061356e565b60405180910390f35b3480156101b957600080fd5b506101d460048036036101cf9190810190612fb6565b610892565b6040516101e191906134b1565b60405180910390f35b3480156101f657600080fd5b50610211600480360361020c9190810190612fb6565b61096e565b60405161021e91906134b1565b60405180910390f35b34801561023357600080fd5b5061024e60048036036102499190810190612bda565b610a4a565b60405161026298979695949392919061341e565b60405180910390f35b34801561027757600080fd5b50610292600480360361028d9190810190612df6565b610c9d565b005b3480156102a057600080fd5b506102bb60048036036102b69190810190612c1b565b611031565b6040516102c891906133da565b60405180910390f35b3480156102dd57600080fd5b506102f860048036036102f39190810190612bda565b611138565b6040516103079392919061356e565b60405180910390f35b61032a60048036036103259190810190612c5c565b6112a8565b005b34801561033857600080fd5b50610353600480360361034e9190810190612d5f565b611392565b005b34801561036157600080fd5b5061037c6004803603610377919081019061300a565b6114cc565b60405161038991906134b1565b60405180910390f35b34801561039e57600080fd5b506103b960048036036103b49190810190612fb6565b611585565b6040516103c691906134b1565b60405180910390f35b3480156103db57600080fd5b506103f660048036036103f19190810190612bda565b611661565b60405161040391906134b1565b60405180910390f35b34801561041857600080fd5b50610433600480360361042e919081019061300a565b611727565b60405161044091906134b1565b60405180910390f35b34801561045557600080fd5b50610470600480360361046b9190810190612fb6565b6117d7565b60405161047f9392919061356e565b60405180910390f35b34801561049457600080fd5b506104af60048036036104aa9190810190612c1b565b611961565b6040516104bc91906133fc565b60405180910390f35b3480156104d157600080fd5b506104da611b2c565b6040516104e79190613553565b60405180910390f35b3480156104fc57600080fd5b5061051760048036036105129190810190612c1b565b611b38565b60405161052491906133fc565b60405180910390f35b34801561053957600080fd5b50610554600480360361054f9190810190612c1b565b611d03565b60405161056191906133fc565b60405180910390f35b34801561057657600080fd5b50610591600480360361058c9190810190612fb6565b611ece565b6040516105a09392919061356e565b60405180910390f35b3480156105b557600080fd5b506105d060048036036105cb9190810190612c1b565b612058565b6040516105dd91906133da565b60405180910390f35b3480156105f257600080fd5b5061060d60048036036106089190810190612eb5565b61215f565b005b34801561061b57600080fd5b5061063660048036036106319190810190612c1b565b612701565b60405161064391906133da565b60405180910390f35b600080905060008090505b82518110156106985761067d83828151811061066f57fe5b602002602001015185612808565b1561068b5760019150610698565b8080600101915050610657565b50600115158115151415610702576007846040516106b691906133c3565b90815260200160405180910390208390806001815401808255809150509060018203906000526020600020016000909192909190915090805190602001906106ff929190612861565b50505b50505050565b600582805160208101820180518482526020830160208501208183528095505050505050818154811061073757fe5b906000526020600020906003020160009150915050806000015490806001018054600181600116156101000203166002900480601f0160208091040260200160405190810160405280929190818152602001828054600181600116156101000203166002900480156107ea5780601f106107bf576101008083540402835291602001916107ea565b820191906000526020600020905b8154815290600101906020018083116107cd57829003601f168201915b505050505090806002018054600181600116156101000203166002900480601f0160208091040260200160405190810160405280929190818152602001828054600181600116156101000203166002900480156108885780601f1061085d57610100808354040283529160200191610888565b820191906000526020600020905b81548152906001019060200180831161086b57829003601f168201915b5050505050905083565b600a8280516020810182018051848252602083016020850120818352809550505050505081815481106108c157fe5b90600052602060002001600091509150508054600181600116156101000203166002900480601f0160208091040260200160405190810160405280929190818152602001828054600181600116156101000203166002900480156109665780601f1061093b57610100808354040283529160200191610966565b820191906000526020600020905b81548152906001019060200180831161094957829003601f168201915b505050505081565b600782805160208101820180518482526020830160208501208183528095505050505050818154811061099d57fe5b90600052602060002001600091509150508054600181600116156101000203166002900480601f016020809104026020016040519081016040528092919081815260200182805460018160011615610100020316600290048015610a425780601f10610a1757610100808354040283529160200191610a42565b820191906000526020600020905b815481529060010190602001808311610a2557829003601f168201915b505050505081565b6001818051602081018201805184825260208301602085012081835280955050505050506000915090508060000160009054906101000a900460ff16908060000160019054906101000a900473ffffffffffffffffffffffffffffffffffffffff1690806001018054600181600116156101000203166002900480601f016020809104026020016040519081016040528092919081815260200182805460018160011615610100020316600290048015610b455780601f10610b1a57610100808354040283529160200191610b45565b820191906000526020600020905b815481529060010190602001808311610b2857829003601f168201915b505050505090806002018054600181600116156101000203166002900480601f016020809104026020016040519081016040528092919081815260200182805460018160011615610100020316600290048015610be35780601f10610bb857610100808354040283529160200191610be3565b820191906000526020600020905b815481529060010190602001808311610bc657829003601f168201915b505050505090806003018054600181600116156101000203166002900480601f016020809104026020016040519081016040528092919081815260200182805460018160011615610100020316600290048015610c815780601f10610c5657610100808354040283529160200191610c81565b820191906000526020600020905b815481529060010190602001808311610c6457829003601f168201915b5050505050908060040154908060050154908060060154905088565b610d6f600186604051610cb091906133c3565b90815260200160405180910390206001018054600181600116156101000203166002900480601f016020809104026020016040519081016040528092919081815260200182805460018160011615610100020316600290048015610d555780601f10610d2a57610100808354040283529160200191610d55565b820191906000526020600020905b815481529060010190602001808311610d3857829003601f168201915b505050505060405180602001604052806000815250612808565b610dae576040517f08c379a0000000000000000000000000000000000000000000000000000000008152600401610da590613533565b60405180910390fd5b610e72600860008581526020019081526020016000208054600181600116156101000203166002900480601f016020809104026020016040519081016040528092919081815260200182805460018160011615610100020316600290048015610e585780601f10610e2d57610100808354040283529160200191610e58565b820191906000526020600020905b815481529060010190602001808311610e3b57829003601f168201915b505050505060405180602001604052806000815250612808565b610eb1576040517f08c379a0000000000000000000000000000000000000000000000000000000008152600401610ea8906134f3565b60405180910390fd5b60405180610100016040528082151581526020013373ffffffffffffffffffffffffffffffffffffffff168152602001868152602001858152602001838152602001848152602001600081526020016000815250600186604051610f1591906133c3565b908152602001604051809103902060008201518160000160006101000a81548160ff02191690831515021790555060208201518160000160016101000a81548173ffffffffffffffffffffffffffffffffffffffff021916908373ffffffffffffffffffffffffffffffffffffffff1602179055506040820151816001019080519060200190610fa69291906128e1565b506060820151816002019080519060200190610fc39291906128e1565b506080820151816003019080519060200190610fe09291906128e1565b5060a0820151816004015560c0820151816005015560e0820151816006015590505084600860008581526020019081526020016000209080519060200190611029929190612861565b505050505050565b606060078260405161104391906133c3565b9081526020016040518091039020805480602002602001604051908101604052809291908181526020016000905b8282101561112d578382906000526020600020018054600181600116156101000203166002900480601f0160208091040260200160405190810160405280929190818152602001828054600181600116156101000203166002900480156111195780601f106110ee57610100808354040283529160200191611119565b820191906000526020600020905b8154815290600101906020018083116110fc57829003601f168201915b505050505081526020019060010190611071565b505050509050919050565b600281805160208101820180518482526020830160208501208183528095505050505050600091509050806000015490806001018054600181600116156101000203166002900480601f0160208091040260200160405190810160405280929190818152602001828054600181600116156101000203166002900480156112005780601f106111d557610100808354040283529160200191611200565b820191906000526020600020905b8154815290600101906020018083116111e357829003601f168201915b505050505090806002018054600181600116156101000203166002900480601f01602080910402602001604051908101604052809291908181526020018280546001816001161561010002031660029004801561129e5780601f106112735761010080835404028352916020019161129e565b820191906000526020600020905b81548152906001019060200180831161128157829003601f168201915b5050505050905083565b6001816040516112b891906133c3565b908152602001604051809103902060000160019054906101000a900473ffffffffffffffffffffffffffffffffffffffff1673ffffffffffffffffffffffffffffffffffffffff166108fc349081150290604051600060405180830381858888f1935050505015801561132f573d6000803e3d6000fd5b503460018260405161134191906133c3565b9081526020016040518091039020600601600082825401925050819055503460018360405161137091906133c3565b9081526020016040518091039020600501600082825401925050819055505050565b6114556001846040516113a591906133c3565b90815260200160405180910390206001018054600181600116156101000203166002900480601f01602080910402602001604051908101604052809291908181526020018280546001816001161561010002031660029004801561144a5780601f1061141f5761010080835404028352916020019161144a565b820191906000526020600020905b81548152906001019060200180831161142d57829003601f168201915b505050505084612808565b611494576040517f08c379a000000000000000000000000000000000000000000000000000000000815260040161148b906134d3565b60405180910390fd5b806004836040516114a591906133c3565b908152602001604051809103902090805190602001906114c6929190612861565b50505050565b600081815481106114d957fe5b906000526020600020016000915090508054600181600116156101000203166002900480601f01602080910402602001604051908101604052809291908181526020018280546001816001161561010002031660029004801561157d5780601f106115525761010080835404028352916020019161157d565b820191906000526020600020905b81548152906001019060200180831161156057829003601f168201915b505050505081565b60098280516020810182018051848252602083016020850120818352809550505050505081815481106115b457fe5b90600052602060002001600091509150508054600181600116156101000203166002900480601f0160208091040260200160405190810160405280929190818152602001828054600181600116156101000203166002900480156116595780601f1061162e57610100808354040283529160200191611659565b820191906000526020600020905b81548152906001019060200180831161163c57829003601f168201915b505050505081565b6004818051602081018201805184825260208301602085012081835280955050505050506000915090508054600181600116156101000203166002900480601f01602080910402602001604051908101604052809291908181526020018280546001816001161561010002031660029004801561171f5780601f106116f45761010080835404028352916020019161171f565b820191906000526020600020905b81548152906001019060200180831161170257829003601f168201915b505050505081565b60086020528060005260406000206000915090508054600181600116156101000203166002900480601f0160208091040260200160405190810160405280929190818152602001828054600181600116156101000203166002900480156117cf5780601f106117a4576101008083540402835291602001916117cf565b820191906000526020600020905b8154815290600101906020018083116117b257829003601f168201915b505050505081565b600382805160208101820180518482526020830160208501208183528095505050505050818154811061180657fe5b906000526020600020906003020160009150915050806000015490806001018054600181600116156101000203166002900480601f0160208091040260200160405190810160405280929190818152602001828054600181600116156101000203166002900480156118b95780601f1061188e576101008083540402835291602001916118b9565b820191906000526020600020905b81548152906001019060200180831161189c57829003601f168201915b505050505090806002018054600181600116156101000203166002900480601f0160208091040260200160405190810160405280929190818152602001828054600181600116156101000203166002900480156119575780601f1061192c57610100808354040283529160200191611957565b820191906000526020600020905b81548152906001019060200180831161193a57829003601f168201915b5050505050905083565b606060058260405161197391906133c3565b9081526020016040518091039020805480602002602001604051908101604052809291908181526020016000905b82821015611b21578382906000526020600020906003020160405180606001604052908160008201548152602001600182018054600181600116156101000203166002900480601f016020809104026020016040519081016040528092919081815260200182805460018160011615610100020316600290048015611a675780601f10611a3c57610100808354040283529160200191611a67565b820191906000526020600020905b815481529060010190602001808311611a4a57829003601f168201915b50505050508152602001600282018054600181600116156101000203166002900480601f016020809104026020016040519081016040528092919081815260200182805460018160011615610100020316600290048015611b095780601f10611ade57610100808354040283529160200191611b09565b820191906000526020600020905b815481529060010190602001808311611aec57829003601f168201915b505050505081525050815260200190600101906119a1565b505050509050919050565b60008080549050905090565b6060600382604051611b4a91906133c3565b9081526020016040518091039020805480602002602001604051908101604052809291908181526020016000905b82821015611cf8578382906000526020600020906003020160405180606001604052908160008201548152602001600182018054600181600116156101000203166002900480601f016020809104026020016040519081016040528092919081815260200182805460018160011615610100020316600290048015611c3e5780601f10611c1357610100808354040283529160200191611c3e565b820191906000526020600020905b815481529060010190602001808311611c2157829003601f168201915b50505050508152602001600282018054600181600116156101000203166002900480601f016020809104026020016040519081016040528092919081815260200182805460018160011615610100020316600290048015611ce05780601f10611cb557610100808354040283529160200191611ce0565b820191906000526020600020905b815481529060010190602001808311611cc357829003601f168201915b50505050508152505081526020019060010190611b78565b505050509050919050565b6060600682604051611d1591906133c3565b9081526020016040518091039020805480602002602001604051908101604052809291908181526020016000905b82821015611ec3578382906000526020600020906003020160405180606001604052908160008201548152602001600182018054600181600116156101000203166002900480601f016020809104026020016040519081016040528092919081815260200182805460018160011615610100020316600290048015611e095780601f10611dde57610100808354040283529160200191611e09565b820191906000526020600020905b815481529060010190602001808311611dec57829003601f168201915b50505050508152602001600282018054600181600116156101000203166002900480601f016020809104026020016040519081016040528092919081815260200182805460018160011615610100020316600290048015611eab5780601f10611e8057610100808354040283529160200191611eab565b820191906000526020600020905b815481529060010190602001808311611e8e57829003601f168201915b50505050508152505081526020019060010190611d43565b505050509050919050565b6006828051602081018201805184825260208301602085012081835280955050505050508181548110611efd57fe5b906000526020600020906003020160009150915050806000015490806001018054600181600116156101000203166002900480601f016020809104026020016040519081016040528092919081815260200182805460018160011615610100020316600290048015611fb05780601f10611f8557610100808354040283529160200191611fb0565b820191906000526020600020905b815481529060010190602001808311611f9357829003601f168201915b505050505090806002018054600181600116156101000203166002900480601f01602080910402602001604051908101604052809291908181526020018280546001816001161561010002031660029004801561204e5780601f106120235761010080835404028352916020019161204e565b820191906000526020600020905b81548152906001019060200180831161203157829003601f168201915b5050505050905083565b6060600a8260405161206a91906133c3565b9081526020016040518091039020805480602002602001604051908101604052809291908181526020016000905b82821015612154578382906000526020600020018054600181600116156101000203166002900480601f0160208091040260200160405190810160405280929190818152602001828054600181600116156101000203166002900480156121405780601f1061211557610100808354040283529160200191612140565b820191906000526020600020905b81548152906001019060200180831161212357829003601f168201915b505050505081526020019060010190612098565b505050509050919050565b61223160018760405161217291906133c3565b90815260200160405180910390206001018054600181600116156101000203166002900480601f0160208091040260200160405190810160405280929190818152602001828054600181600116156101000203166002900480156122175780601f106121ec57610100808354040283529160200191612217565b820191906000526020600020905b8154815290600101906020018083116121fa57829003601f168201915b505050505060405180602001604052806000815250612808565b15612271576040517f08c379a000000000000000000000000000000000000000000000000000000000815260040161226890613513565b60405180910390fd5b60405180606001604052808681526020018581526020018481525060028460405161229c91906133c3565b90815260200160405180910390206000820151816000015560208201518160010190805190602001906122d09291906128e1565b5060408201518160020190805190602001906122ed9291906128e1565b5090505060038660405161230191906133c3565b908152602001604051809103902060028460405161231f91906133c3565b9081526020016040518091039020908060018154018082558091505090600182039060005260206000209060030201600090919290919091506000820154816000015560018201816001019080546001816001161561010002031660029004612389929190612961565b50600282018160020190805460018160011615610100020316600290046123b1929190612961565b5050505060008090505b8251811015612516576009846040516123d491906133c3565b90815260200160405180910390208382815181106123ee57fe5b60200260200101519080600181540180825580915050906001820390600052602060002001600090919290919091509080519060200190612430929190612861565b5050600583828151811061244057fe5b602002602001015160405161245591906133ac565b908152602001604051809103902060028560405161247391906133c3565b90815260200160405180910390209080600181540180825580915050906001820390600052602060002090600302016000909192909190915060008201548160000155600182018160010190805460018160011615610100020316600290046124dd929190612961565b5060028201816002019080546001816001161561010002031660029004612505929190612961565b5050505080806001019150506123bb565b5060008090505b815181101561260a57600682828151811061253457fe5b602002602001015160405161254991906133ac565b908152602001604051809103902060028560405161256791906133c3565b90815260200160405180910390209080600181540180825580915050906001820390600052602060002090600302016000909192909190915060008201548160000155600182018160010190805460018160011615610100020316600290046125d1929190612961565b50600282018160020190805460018160011615610100020316600290046125f9929190612961565b50505050808060010191505061251d565b50600a60008054905014156126b9576000600990505b60018110612687576000600182038154811061263857fe5b906000526020600020016000828154811061264f57fe5b9060005260206000200190805460018160011615610100020316600290046126789291906129e8565b50808060019003915050612620565b50826000808154811061269657fe5b9060005260206000200190805190602001906126b3929190612861565b506126f9565b60008390806001815401808255809150509060018203906000526020600020016000909192909190915090805190602001906126f6929190612861565b50505b505050505050565b606060098260405161271391906133c3565b9081526020016040518091039020805480602002602001604051908101604052809291908181526020016000905b828210156127fd578382906000526020600020018054600181600116156101000203166002900480601f0160208091040260200160405190810160405280929190818152602001828054600181600116156101000203166002900480156127e95780601f106127be576101008083540402835291602001916127e9565b820191906000526020600020905b8154815290600101906020018083116127cc57829003601f168201915b505050505081526020019060010190612741565b505050509050919050565b60008160405160200161281b91906133c3565b604051602081830303815290604052805190602001208360405160200161284291906133c3565b6040516020818303038152906040528051906020012014905092915050565b828054600181600116156101000203166002900490600052602060002090601f016020900481019282601f106128a257805160ff19168380011785556128d0565b828001600101855582156128d0579182015b828111156128cf5782518255916020019190600101906128b4565b5b5090506128dd9190612a6f565b5090565b828054600181600116156101000203166002900490600052602060002090601f016020900481019282601f1061292257805160ff1916838001178555612950565b82800160010185558215612950579182015b8281111561294f578251825591602001919060010190612934565b5b50905061295d9190612a6f565b5090565b828054600181600116156101000203166002900490600052602060002090601f016020900481019282601f1061299a57805485556129d7565b828001600101855582156129d757600052602060002091601f016020900482015b828111156129d65782548255916001019190600101906129bb565b5b5090506129e49190612a6f565b5090565b828054600181600116156101000203166002900490600052602060002090601f016020900481019282601f10612a215780548555612a5e565b82800160010185558215612a5e57600052602060002091601f016020900482015b82811115612a5d578254825591600101919060010190612a42565b5b509050612a6b9190612a6f565b5090565b612a9191905b80821115612a8d576000816000905550600101612a75565b5090565b90565b600082601f830112612aa557600080fd5b8135612ab8612ab3826135e0565b6135b3565b9150818183526020840193506020810190508360005b83811015612afe5781358601612ae48882612b1d565b845260208401935060208301925050600181019050612ace565b5050505092915050565b600081359050612b17816137b0565b92915050565b600082601f830112612b2e57600080fd5b8135612b41612b3c82613608565b6135b3565b91508082526020830160208301858383011115612b5d57600080fd5b612b6883828461375d565b50505092915050565b600082601f830112612b8257600080fd5b8135612b95612b9082613634565b6135b3565b91508082526020830160208301858383011115612bb157600080fd5b612bbc83828461375d565b50505092915050565b600081359050612bd4816137c7565b92915050565b600060208284031215612bec57600080fd5b600082013567ffffffffffffffff811115612c0657600080fd5b612c1284828501612b1d565b91505092915050565b600060208284031215612c2d57600080fd5b600082013567ffffffffffffffff811115612c4757600080fd5b612c5384828501612b71565b91505092915050565b60008060408385031215612c6f57600080fd5b600083013567ffffffffffffffff811115612c8957600080fd5b612c9585828601612b71565b925050602083013567ffffffffffffffff811115612cb257600080fd5b612cbe85828601612b71565b9150509250929050565b600080600060608486031215612cdd57600080fd5b600084013567ffffffffffffffff811115612cf757600080fd5b612d0386828701612b71565b935050602084013567ffffffffffffffff811115612d2057600080fd5b612d2c86828701612b71565b925050604084013567ffffffffffffffff811115612d4957600080fd5b612d5586828701612a94565b9150509250925092565b600080600060608486031215612d7457600080fd5b600084013567ffffffffffffffff811115612d8e57600080fd5b612d9a86828701612b71565b935050602084013567ffffffffffffffff811115612db757600080fd5b612dc386828701612b71565b925050604084013567ffffffffffffffff811115612de057600080fd5b612dec86828701612b71565b9150509250925092565b600080600080600060a08688031215612e0e57600080fd5b600086013567ffffffffffffffff811115612e2857600080fd5b612e3488828901612b71565b955050602086013567ffffffffffffffff811115612e5157600080fd5b612e5d88828901612b71565b9450506040612e6e88828901612bc5565b935050606086013567ffffffffffffffff811115612e8b57600080fd5b612e9788828901612b71565b9250506080612ea888828901612b08565b9150509295509295909350565b60008060008060008060c08789031215612ece57600080fd5b600087013567ffffffffffffffff811115612ee857600080fd5b612ef489828a01612b71565b9650506020612f0589828a01612bc5565b955050604087013567ffffffffffffffff811115612f2257600080fd5b612f2e89828a01612b71565b945050606087013567ffffffffffffffff811115612f4b57600080fd5b612f5789828a01612b71565b935050608087013567ffffffffffffffff811115612f7457600080fd5b612f8089828a01612a94565b92505060a087013567ffffffffffffffff811115612f9d57600080fd5b612fa989828a01612a94565b9150509295509295509295565b60008060408385031215612fc957600080fd5b600083013567ffffffffffffffff811115612fe357600080fd5b612fef85828601612b1d565b925050602061300085828601612bc5565b9150509250929050565b60006020828403121561301c57600080fd5b600061302a84828501612bc5565b91505092915050565b600061303f8383613194565b905092915050565b60006130538383613337565b905092915050565b61306481613715565b82525050565b600061307582613680565b61307f81856136c6565b93508360208202850161309185613660565b8060005b858110156130cd57848403895281516130ae8582613033565b94506130b9836136ac565b925060208a01995050600181019050613095565b50829750879550505050505092915050565b60006130ea8261368b565b6130f481856136d7565b93508360208202850161310685613670565b8060005b8581101561314257848403895281516131238582613047565b945061312e836136b9565b925060208a0199505060018101905061310a565b50829750879550505050505092915050565b61315d81613727565b82525050565b600061316e826136a1565b613178818561370a565b935061318881856020860161376c565b80840191505092915050565b600061319f82613696565b6131a981856136e8565b93506131b981856020860161376c565b6131c28161379f565b840191505092915050565b60006131d882613696565b6131e281856136f9565b93506131f281856020860161376c565b6131fb8161379f565b840191505092915050565b600061321182613696565b61321b818561370a565b935061322b81856020860161376c565b80840191505092915050565b60006132446013836136f9565b91507f596f7520617265206e6f7420617574686f7221000000000000000000000000006000830152602082019050919050565b6000613284601a836136f9565b91507f4161646861617220696420616c726561647920696e20757365210000000000006000830152602082019050919050565b60006132c46014836136f9565b91507f4e6f7420612076616c6964204163636f756e74210000000000000000000000006000830152602082019050919050565b60006133046012836136f9565b91507f496420616c726561647920696e207573652100000000000000000000000000006000830152602082019050919050565b600060608301600083015161334f600086018261338e565b50602083015184820360208601526133678282613194565b915050604083015184820360408601526133818282613194565b9150508091505092915050565b61339781613753565b82525050565b6133a681613753565b82525050565b60006133b88284613206565b915081905092915050565b60006133cf8284613163565b915081905092915050565b600060208201905081810360008301526133f4818461306a565b905092915050565b6000602082019050818103600083015261341681846130df565b905092915050565b600061010082019050613434600083018b613154565b613441602083018a61305b565b818103604083015261345381896131cd565b9050818103606083015261346781886131cd565b9050818103608083015261347b81876131cd565b905061348a60a083018661339d565b61349760c083018561339d565b6134a460e083018461339d565b9998505050505050505050565b600060208201905081810360008301526134cb81846131cd565b905092915050565b600060208201905081810360008301526134ec81613237565b9050919050565b6000602082019050818103600083015261350c81613277565b9050919050565b6000602082019050818103600083015261352c816132b7565b9050919050565b6000602082019050818103600083015261354c816132f7565b9050919050565b6000602082019050613568600083018461339d565b92915050565b6000606082019050613583600083018661339d565b818103602083015261359581856131cd565b905081810360408301526135a981846131cd565b9050949350505050565b6000604051905081810181811067ffffffffffffffff821117156135d657600080fd5b8060405250919050565b600067ffffffffffffffff8211156135f757600080fd5b602082029050602081019050919050565b600067ffffffffffffffff82111561361f57600080fd5b601f19601f8301169050602081019050919050565b600067ffffffffffffffff82111561364b57600080fd5b601f19601f8301169050602081019050919050565b6000819050602082019050919050565b6000819050602082019050919050565b600081519050919050565b600081519050919050565b600081519050919050565b600081519050919050565b6000602082019050919050565b6000602082019050919050565b600082825260208201905092915050565b600082825260208201905092915050565b600082825260208201905092915050565b600082825260208201905092915050565b600081905092915050565b600061372082613733565b9050919050565b60008115159050919050565b600073ffffffffffffffffffffffffffffffffffffffff82169050919050565b6000819050919050565b82818337600083830152505050565b60005b8381101561378a57808201518184015260208101905061376f565b83811115613799576000848401525b50505050565b6000601f19601f8301169050919050565b6137b981613727565b81146137c457600080fd5b50565b6137d081613753565b81146137db57600080fd5b5056fea365627a7a72315820fcbc30aa160e84a7853e56f3e533161dd365d34e3f94c17a331543415546bcba6c6578706572696d656e74616cf564736f6c63430005100040",
  "source": "pragma solidity ^0.5.0;\r\npragma experimental ABIEncoderV2;\r\ncontract main {\r\n\r\n  string[] public topTen;\r\n\r\n  struct news{\r\n    uint timestamp;\r\n    string descreption;\r\n    string id;\r\n  }\r\n\r\n struct account{\r\n   bool isprivate;\r\n   address payable acntAddress;\r\n   string id;\r\n   string name;\r\n   string profileHash;\r\n   uint aadhaar;\r\n   uint donated;\r\n   uint received;\r\n }\r\n\r\n  mapping (string => account) public accounts;\r\n  mapping (string => news) public newsById;\r\n  mapping (string => news[]) public authorNews;\r\n  mapping (string => string) public newsImages;\r\n  mapping (string => news[]) public newsByCategory;\r\n  mapping (string => news[]) public newsForAcnt;\r\n  mapping (string => string[]) public verifiedNews;\r\n  mapping (uint => string) public identity;\r\n  mapping (string => string[]) public categoriesForNews;\r\n  mapping (string => string[]) public taggedForNews;\r\n\r\n  function string_check(string memory str1, string memory str2) pure internal returns (bool) {\r\n        return (keccak256(abi.encodePacked(str1)) == keccak256(abi.encodePacked(str2)));\r\n    }\r\n\r\n    function createAccount(string memory _id,string memory _name,uint _aadhaar,string memory _profile,bool _flag) public{\r\n      require(string_check(accounts[_id].id,''),'Id already in use!');\r\n      require(string_check(identity[_aadhaar],''),'Aadhaar id already in use!');\r\n      accounts[_id]=account(_flag,msg.sender,_id,_name,_profile,_aadhaar,0,0);\r\n      identity[_aadhaar]=_id;\r\n    }\r\n\r\n    function createNews(string memory _authid,uint _time,string memory _descreption,string memory _id,string[] memory _categories,string[] memory _tagged) public{\r\n      require(!string_check(accounts[_authid].id,''),'Not a valid Account!');\r\n        newsById[_id]=news(_time,_descreption,_id);\r\n        authorNews[_authid].push(newsById[_id]);\r\n        for(uint itr=0;itr<_categories.length;itr++){\r\n          categoriesForNews[_id].push(_categories[itr]);\r\n          newsByCategory[_categories[itr]].push(newsById[_id]);\r\n        }\r\n        for(uint itr=0;itr<_tagged.length;itr++){\r\n          newsForAcnt[_tagged[itr]].push(newsById[_id]);\r\n        }\r\n        if(topTen.length==10){\r\n       for(uint itr=9;itr>=1;itr--){\r\n         topTen[itr]=topTen[itr-1];\r\n       }\r\n       topTen[0]=_id;\r\n     }\r\n     else\r\n     topTen.push(_id);\r\n    }\r\n\r\n  function addImages(string memory _aid,string memory _nid,string memory _ipfs) public{\r\n    require(string_check(accounts[_aid].id,_aid),'You are not author!');\r\n    newsImages[_nid]=_ipfs;\r\n  }\r\n\r\n  function verification(string memory _newsId,string memory _acntId,string[] memory _tagged) public{\r\n    bool flag=false;\r\n    for(uint itr=0;itr<_tagged.length;itr++){\r\n      if(string_check(_tagged[itr],_acntId)){\r\n        flag=true;\r\n        break;\r\n      }\r\n    }\r\n    if(flag==true){\r\n      verifiedNews[_newsId].push(_acntId);\r\n    }\r\n  }\r\n\r\n  function getAuthorNews(string memory _id) public returns(news[] memory){\r\n    return authorNews[_id];\r\n  }\r\n\r\n  function getCategoryNews(string memory _category) public returns(news[] memory){\r\n    return newsByCategory[_category];\r\n  }\r\n\r\n  function getTaggedNews(string memory _id) public returns(news[] memory){\r\n    return newsForAcnt[_id];\r\n  }\r\n\r\n  function getNewsVerifier(string memory _id) public returns(string[] memory){\r\n    return verifiedNews[_id];\r\n  }\r\n\r\n  function getCategories(string memory _id) public returns(string[] memory){\r\n    return categoriesForNews[_id];\r\n  }\r\n\r\n  function getTagged(string memory _id) public returns(string[] memory){\r\n    return taggedForNews[_id];\r\n  }\r\n\r\n  function getTopCount() public returns(uint){\r\n    return topTen.length;\r\n  }\r\n\r\n  function tipAccount(string memory _sender,string memory _receiver) public payable{\r\n    (accounts[_receiver].acntAddress).transfer(msg.value);\r\n    accounts[_receiver].received+=msg.value;\r\n    accounts[_sender].donated+=msg.value;\r\n  }\r\n\r\n}\r\n",
  "sourcePath": "C:/Users/srira/Desktop/fourth-pillar/src/contracts/main.sol",
  "compiler": {
    "name": "solc",
    "version": "0.5.16+commit.9c3226ce.Emscripten.clang"
  },
  "schemaVersion": "3.2.5",
  "updatedAt": "2020-10-10T22:58:02.552Z",
  "networkType": "ethereum",
  "devdoc": {
    "methods": {}
  },
  "userdoc": {
    "methods": {}
  }
}